{
  "contractName": "PaymentProcessor",
  "abi": [
    {
      "inputs": [
        {
          "internalType": "address",
          "name": "adminaddress",
          "type": "address"
        },
        {
          "internalType": "address",
          "name": "daiaddress",
          "type": "address"
        }
      ],
      "stateMutability": "nonpayable",
      "type": "constructor"
    },
    {
      "anonymous": false,
      "inputs": [
        {
          "indexed": false,
          "internalType": "address",
          "name": "payer",
          "type": "address"
        },
        {
          "indexed": false,
          "internalType": "uint256",
          "name": "amount",
          "type": "uint256"
        },
        {
          "indexed": false,
          "internalType": "uint256",
          "name": "date",
          "type": "uint256"
        },
        {
          "indexed": false,
          "internalType": "uint256",
          "name": "paymentID",
          "type": "uint256"
        }
      ],
      "name": "PaymentDone",
      "type": "event"
    },
    {
      "inputs": [],
      "name": "admin",
      "outputs": [
        {
          "internalType": "address",
          "name": "",
          "type": "address"
        }
      ],
      "stateMutability": "view",
      "type": "function"
    },
    {
      "inputs": [],
      "name": "dai",
      "outputs": [
        {
          "internalType": "contract IERC20",
          "name": "",
          "type": "address"
        }
      ],
      "stateMutability": "view",
      "type": "function"
    },
    {
      "inputs": [
        {
          "internalType": "uint256",
          "name": "amount",
          "type": "uint256"
        },
        {
          "internalType": "uint256",
          "name": "paymentID",
          "type": "uint256"
        }
      ],
      "name": "pay",
      "outputs": [],
      "stateMutability": "nonpayable",
      "type": "function"
    }
  ],
  "bytecode": "0x608060405234801561001057600080fd5b5060405161059c38038061059c833981810160405281019061003291906100cf565b816000806101000a81548173ffffffffffffffffffffffffffffffffffffffff021916908373ffffffffffffffffffffffffffffffffffffffff16021790555080600160006101000a81548173ffffffffffffffffffffffffffffffffffffffff021916908373ffffffffffffffffffffffffffffffffffffffff1602179055505050610154565b6000815190506100c98161013d565b92915050565b600080604083850312156100e257600080fd5b60006100f0858286016100ba565b9250506020610101858286016100ba565b9150509250929050565b60006101168261011d565b9050919050565b600073ffffffffffffffffffffffffffffffffffffffff82169050919050565b6101468161010b565b811461015157600080fd5b50565b610439806101636000396000f3fe608060405234801561001057600080fd5b50600436106100415760003560e01c8063ef48eee614610046578063f4b9fa7514610062578063f851a44014610080575b600080fd5b610060600480360381019061005b919061024e565b61009e565b005b61006a6101b1565b604051610077919061034e565b60405180910390f35b6100886101d7565b60405161009591906102b7565b60405180910390f35b600160009054906101000a900473ffffffffffffffffffffffffffffffffffffffff1673ffffffffffffffffffffffffffffffffffffffff166323b872dd3360008054906101000a900473ffffffffffffffffffffffffffffffffffffffff16856040518463ffffffff1660e01b815260040161011d939291906102d2565b602060405180830381600087803b15801561013757600080fd5b505af115801561014b573d6000803e3d6000fd5b505050506040513d601f19601f8201168201806040525081019061016f9190610225565b507f78eaebe37a28490ff43ed0e95bdc47de1587156ac0069b652e1d2d9f42464e98338342846040516101a59493929190610309565b60405180910390a15050565b600160009054906101000a900473ffffffffffffffffffffffffffffffffffffffff1681565b60008054906101000a900473ffffffffffffffffffffffffffffffffffffffff1681565b60008151905061020a816103d5565b92915050565b60008135905061021f816103ec565b92915050565b60006020828403121561023757600080fd5b6000610245848285016101fb565b91505092915050565b6000806040838503121561026157600080fd5b600061026f85828601610210565b925050602061028085828601610210565b9150509250929050565b61029381610369565b82525050565b6102a2816103b1565b82525050565b6102b1816103a7565b82525050565b60006020820190506102cc600083018461028a565b92915050565b60006060820190506102e7600083018661028a565b6102f4602083018561028a565b61030160408301846102a8565b949350505050565b600060808201905061031e600083018761028a565b61032b60208301866102a8565b61033860408301856102a8565b61034560608301846102a8565b95945050505050565b60006020820190506103636000830184610299565b92915050565b600061037482610387565b9050919050565b60008115159050919050565b600073ffffffffffffffffffffffffffffffffffffffff82169050919050565b6000819050919050565b60006103bc826103c3565b9050919050565b60006103ce82610387565b9050919050565b6103de8161037b565b81146103e957600080fd5b50565b6103f5816103a7565b811461040057600080fd5b5056fea26469706673582212205dec14cfa92d13c6204ec7ca1ff6ac0426b0750705de65e9a02273fd57e3dc0964736f6c63430008000033",
  "immutableReferences": {},
  "source": "// SPDX-License-Identifier: MIT\n\n\npragma solidity ^0.8.0;\n\nimport '@openzeppelin/contracts/token/ERC20/IERC20.sol';\n\ncontract PaymentProcessor{\n\n    address public admin;\n    IERC20 public dai; // 1 dai is always 1usd\n\n    event PaymentDone (\n        address payer,\n        uint amount,\n        uint date,\n        uint paymentID\n    );\n\n    constructor(address adminaddress, address daiaddress) public {\n\n        admin = adminaddress;\n        dai = IERC20(daiaddress);\n    }\n\n    function pay(uint amount, uint paymentID) external {\n        dai.transferFrom(msg.sender, admin, amount);\n        emit PaymentDone(msg.sender, amount, block.timestamp, paymentID);\n    }\n\n\n\n}",
  "sourcePath": "/Users/akshitmadan/Desktop/payments-erc20/contracts/PaymentProcessor.sol",
  "compiler": {
    "name": "solc",
    "version": "0.8.0+commit.c7dfd78e.Emscripten.clang"
  },
  "schemaVersion": "3.4.6",
  "updatedAt": "2022-07-14T19:23:21.466Z",
  "devdoc": {
    "kind": "dev",
    "methods": {},
    "version": 1
  },
  "userdoc": {
    "kind": "user",
    "methods": {},
    "version": 1
  }
}